{
  "contractName": "Lottery",
  "abi": [
    {
      "inputs": [],
      "stateMutability": "nonpayable",
      "type": "constructor"
    },
    {
      "inputs": [],
      "name": "lotteryId",
      "outputs": [
        {
          "internalType": "uint256",
          "name": "",
          "type": "uint256"
        }
      ],
      "stateMutability": "view",
      "type": "function",
      "constant": true
    },
    {
      "inputs": [
        {
          "internalType": "uint256",
          "name": "",
          "type": "uint256"
        }
      ],
      "name": "lotteryWinners",
      "outputs": [
        {
          "internalType": "address payable",
          "name": "",
          "type": "address"
        }
      ],
      "stateMutability": "view",
      "type": "function",
      "constant": true
    },
    {
      "inputs": [],
      "name": "owner",
      "outputs": [
        {
          "internalType": "address",
          "name": "",
          "type": "address"
        }
      ],
      "stateMutability": "view",
      "type": "function",
      "constant": true
    },
    {
      "inputs": [
        {
          "internalType": "uint256",
          "name": "",
          "type": "uint256"
        }
      ],
      "name": "players",
      "outputs": [
        {
          "internalType": "address payable",
          "name": "",
          "type": "address"
        }
      ],
      "stateMutability": "view",
      "type": "function",
      "constant": true
    },
    {
      "inputs": [
        {
          "internalType": "uint256",
          "name": "idLottery",
          "type": "uint256"
        }
      ],
      "name": "getWinnerByLottery",
      "outputs": [
        {
          "internalType": "address payable",
          "name": "",
          "type": "address"
        }
      ],
      "stateMutability": "view",
      "type": "function",
      "constant": true
    },
    {
      "inputs": [],
      "name": "getBalance",
      "outputs": [
        {
          "internalType": "uint256",
          "name": "",
          "type": "uint256"
        }
      ],
      "stateMutability": "view",
      "type": "function",
      "constant": true
    },
    {
      "inputs": [],
      "name": "getPlayer",
      "outputs": [
        {
          "internalType": "address payable[]",
          "name": "",
          "type": "address[]"
        }
      ],
      "stateMutability": "view",
      "type": "function",
      "constant": true
    },
    {
      "inputs": [],
      "name": "enter",
      "outputs": [],
      "stateMutability": "payable",
      "type": "function",
      "payable": true
    },
    {
      "inputs": [],
      "name": "getRandomNumber",
      "outputs": [
        {
          "internalType": "uint256",
          "name": "",
          "type": "uint256"
        }
      ],
      "stateMutability": "view",
      "type": "function",
      "constant": true
    },
    {
      "inputs": [],
      "name": "pickWinner",
      "outputs": [],
      "stateMutability": "nonpayable",
      "type": "function"
    }
  ],
  "bytecode": "0x608060405234801561001057600080fd5b50336000806101000a81548173ffffffffffffffffffffffffffffffffffffffff021916908373ffffffffffffffffffffffffffffffffffffffff1602179055506001600281905550610b38806100686000396000f3fe6080604052600436106100915760003560e01c8063d7a1a5b911610059578063d7a1a5b91461016b578063dbdff2c1146101a8578063e580f47b146101d3578063e97dcb62146101fe578063f71d96cb1461020857610091565b806312065fe014610096578063281d098d146100c15780633308f42d146100fe5780635d495aea146101295780638da5cb5b14610140575b600080fd5b3480156100a257600080fd5b506100ab610245565b6040516100b89190610746565b60405180910390f35b3480156100cd57600080fd5b506100e860048036038101906100e39190610792565b61024d565b6040516100f59190610800565b60405180910390f35b34801561010a57600080fd5b5061011361028a565b60405161012091906108d9565b60405180910390f35b34801561013557600080fd5b5061013e610318565b005b34801561014c57600080fd5b5061015561051e565b604051610162919061091c565b60405180910390f35b34801561017757600080fd5b50610192600480360381019061018d9190610792565b610542565b60405161019f9190610800565b60405180910390f35b3480156101b457600080fd5b506101bd610575565b6040516101ca9190610746565b60405180910390f35b3480156101df57600080fd5b506101e86105c9565b6040516101f59190610746565b60405180910390f35b6102066105cf565b005b34801561021457600080fd5b5061022f600480360381019061022a9190610792565b610647565b60405161023c9190610800565b60405180910390f35b600047905090565b60006003600083815260200190815260200160002060009054906101000a900473ffffffffffffffffffffffffffffffffffffffff169050919050565b6060600180548060200260200160405190810160405280929190818152602001828054801561030e57602002820191906000526020600020905b8160009054906101000a900473ffffffffffffffffffffffffffffffffffffffff1673ffffffffffffffffffffffffffffffffffffffff16815260200190600101908083116102c4575b5050505050905090565b60008054906101000a900473ffffffffffffffffffffffffffffffffffffffff1673ffffffffffffffffffffffffffffffffffffffff163373ffffffffffffffffffffffffffffffffffffffff161461037057600080fd5b6000600180549050610380610575565b61038a9190610966565b9050600181815481106103a05761039f610997565b5b9060005260206000200160009054906101000a900473ffffffffffffffffffffffffffffffffffffffff1673ffffffffffffffffffffffffffffffffffffffff166108fc479081150290604051600060405180830381858888f19350505050158015610410573d6000803e3d6000fd5b506001818154811061042557610424610997565b5b9060005260206000200160009054906101000a900473ffffffffffffffffffffffffffffffffffffffff1660036000600254815260200190815260200160002060006101000a81548173ffffffffffffffffffffffffffffffffffffffff021916908373ffffffffffffffffffffffffffffffffffffffff160217905550600260008154809291906104b6906109f5565b9190505550600067ffffffffffffffff8111156104d6576104d5610a3e565b5b6040519080825280602002602001820160405280156105045781602001602082028036833780820191505090505b506001908051906020019061051a929190610686565b5050565b60008054906101000a900473ffffffffffffffffffffffffffffffffffffffff1681565b60036020528060005260406000206000915054906101000a900473ffffffffffffffffffffffffffffffffffffffff1681565b60008060009054906101000a900473ffffffffffffffffffffffffffffffffffffffff16426040516020016105ab929190610ad6565b6040516020818303038152906040528051906020012060001c905090565b60025481565b662386f26fc1000034116105e257600080fd5b6001339080600181540180825580915050600190039060005260206000200160009091909190916101000a81548173ffffffffffffffffffffffffffffffffffffffff021916908373ffffffffffffffffffffffffffffffffffffffff160217905550565b6001818154811061065757600080fd5b906000526020600020016000915054906101000a900473ffffffffffffffffffffffffffffffffffffffff1681565b8280548282559060005260206000209081019282156106ff579160200282015b828111156106fe5782518260006101000a81548173ffffffffffffffffffffffffffffffffffffffff021916908373ffffffffffffffffffffffffffffffffffffffff160217905550916020019190600101906106a6565b5b50905061070c9190610710565b5090565b5b80821115610729576000816000905550600101610711565b5090565b6000819050919050565b6107408161072d565b82525050565b600060208201905061075b6000830184610737565b92915050565b600080fd5b61076f8161072d565b811461077a57600080fd5b50565b60008135905061078c81610766565b92915050565b6000602082840312156107a8576107a7610761565b5b60006107b68482850161077d565b91505092915050565b600073ffffffffffffffffffffffffffffffffffffffff82169050919050565b60006107ea826107bf565b9050919050565b6107fa816107df565b82525050565b600060208201905061081560008301846107f1565b92915050565b600081519050919050565b600082825260208201905092915050565b6000819050602082019050919050565b610850816107df565b82525050565b60006108628383610847565b60208301905092915050565b6000602082019050919050565b60006108868261081b565b6108908185610826565b935061089b83610837565b8060005b838110156108cc5781516108b38882610856565b97506108be8361086e565b92505060018101905061089f565b5085935050505092915050565b600060208201905081810360008301526108f3818461087b565b905092915050565b6000610906826107bf565b9050919050565b610916816108fb565b82525050565b6000602082019050610931600083018461090d565b92915050565b7f4e487b7100000000000000000000000000000000000000000000000000000000600052601260045260246000fd5b60006109718261072d565b915061097c8361072d565b92508261098c5761098b610937565b5b828206905092915050565b7f4e487b7100000000000000000000000000000000000000000000000000000000600052603260045260246000fd5b7f4e487b7100000000000000000000000000000000000000000000000000000000600052601160045260246000fd5b6000610a008261072d565b91507fffffffffffffffffffffffffffffffffffffffffffffffffffffffffffffffff821415610a3357610a326109c6565b5b600182019050919050565b7f4e487b7100000000000000000000000000000000000000000000000000000000600052604160045260246000fd5b60008160601b9050919050565b6000610a8582610a6d565b9050919050565b6000610a9782610a7a565b9050919050565b610aaf610aaa826108fb565b610a8c565b82525050565b6000819050919050565b610ad0610acb8261072d565b610ab5565b82525050565b6000610ae28285610a9e565b601482019150610af28284610abf565b602082019150819050939250505056fea264697066735822122037ebe57192b4220f6c85cb68e2b2b9135da69feecca1118859126156b2ce02a964736f6c634300080b0033",
  "immutableReferences": {},
  "source": "// SPDX-License-Identifier: MIT\r\n\r\npragma solidity ^0.8.11;\r\n\r\ncontract Lottery{\r\n    address public owner;\r\n    //it is made payable because they have to send and recieve credits\r\n    address payable[] public players ; //array \r\n    uint public lotteryId;\r\n\r\n    // to keep of track of the winner of the lottery\r\n    mapping(uint=> address payable)public lotteryWinners;\r\n\r\n    constructor(){\r\n        owner = msg.sender;\r\n        lotteryId=1;\r\n    }\r\n\r\n    function getWinnerByLottery(uint idLottery) public view returns(address payable){\r\n        return lotteryWinners[idLottery];\r\n    }\r\n\r\n    function getBalance() public view returns(uint) {\r\n        return address(this).balance;\r\n    }\r\n\r\n    function getPlayer() public view returns(address payable[] memory){ //store in temp memory only for the function duration\r\n        return players;\r\n    }\r\n\r\n    function enter() public payable {\r\n        require(msg.value > .01 ether); //entrance fee\r\n        // address of those who want to enter the lottery\r\n        players.push(payable(msg.sender));\r\n    }\r\n\r\n    function getRandomNumber() public view returns (uint){\r\n    // generate a pseudo random number using a hashing algorithm\r\n        return uint(keccak256(abi.encodePacked(owner,block.timestamp))); //gives the timestamp of the current block\r\n        // abi encodepacked is used to easily concatenate two strings hashes it and converts to uint\r\n    }\r\n\r\n    function pickWinner() public onlyOwner{\r\n        uint index = getRandomNumber() % players.length; //to make it in betwwen the indecis of player array\r\n        // transfer funds to the winner\r\n         players[index].transfer(address(this).balance); //the balance remaining in the current smart contract\r\n        // which will be the mney that is send in by the players\r\n\r\n        // always update states after transfer for more protection of the smart contract\r\n        lotteryWinners[lotteryId]=players[index];\r\n        lotteryId++;\r\n\r\n        // reset the state of the contract\r\n        players = new address payable[](0);\r\n\r\n    }\r\n\r\n    modifier onlyOwner(){\r\n        require(msg.sender==owner);\r\n        _;\r\n    }\r\n}",
  "sourcePath": "C:\\Users\\shino\\Documents\\BLOCK-CHAIN-DEVELOPMENT\\lottery-dapp\\Lottery_SmartContract\\contracts\\Lottery.sol",
  "compiler": {
    "name": "solc",
    "version": "0.8.11+commit.d7f03943.Emscripten.clang"
  },
  "schemaVersion": "3.4.14",
  "updatedAt": "2023-05-27T13:55:19.242Z",
  "networkType": "ethereum",
  "devdoc": {
    "kind": "dev",
    "methods": {},
    "version": 1
  },
  "userdoc": {
    "kind": "user",
    "methods": {},
    "version": 1
  }
}